:0400000080313128F2
:1000080080310B1D09000630200095000B118B1361
:100018007108700403191328FF30F007F13D7308C5
:10002800720403191A28FF30F207F33D75087404A7
:1000380003192128FF30F407F53D770876040319E2
:100048002828FF30F607F73D7A08790403192F2886
:10005800FF30F907FA3D8B170900880180313428F1
:10006800F901FA01200038289B208031FA307814F1
:10007800F8147815F815F000BC30F101F200F3011E
:10008800F4007D30F501F6000630F70120009500F8
:1000980071087004031D5C28FA30F000F101781C27
:1000A800582820008C145A2820008C100130F8069B
:1000B80073087204031D6C28BC30F200F301F81CAD
:1000C800682820000C146A2820000C100230F8065A
:1000D80075087404031D7C28BC30F400F501781DF4
:1000E800782820008C177A2820008C130430F80612
:1000F80077087604031D8C287D30F600F701F81D7B
:10010800882820000C178A2820000C130830F806CD
:1001180020000D1895287A087904031D99280C17D2
:1001280099281930F900FA010D1464004C282100AF
:100138009917FC30990519088739703899001708FC
:10014800C1391238970023008C018D0121009501D7
:100158009517951295111508F83906389500063047
:1001680020009500240093019B01250096019D0124
:1001780020009B018B178B160430FB00FC01CE205E
:100188008031FB01FC01D220043021008C000130B9
:100198008D0008007B0820008C0008007B082000E8
:0401A8008D000800BE
:020000040001F9
:04000E00FCFFFFDC18
:00000001FF
