:040000008031202803
:1000080080312000111F090011138B1321001C08D7
:10001800F000F101F6007108F7001B08F000F1018B
:100028007608F300F20170087207F6007108733D54
:10003800F7009D148B170900880180312328F601E9
:10004800F701200027285720803121009D14023015
:1000580077022E3003197602031C342820008C10F6
:1000680002307702D73003197602031C3D2820009E
:100078000C1003307702273003197602031C462838
:1000880020008C1303307702533003197602031CC7
:10009800502820000C13552820008C140C140C1721
:1000A8008C1764002B2821009917FC309905190832
:1000B8008739703899001708C13912389700043009
:1000C80023008C008D01093021009D00A0309E0086
:1000D8009501240093019B01250096019D012000B4
:1000E8009B018B018B170B172100111704308C0013
:1000F8008D01C330F400F50185208031F401F5014C
:100108008928740820008C000800740820008D00DD
:020118000800DD
:020000040001F9
:04000E00FCFFFFDC18
:00000001FF
